:020000040800F2
:1000000000040020D1010008A1030008A10300089A
:10001000A1030008A1030008A1030008A103000830
:10002000A1030008A1030008A1030008D1030008F0
:10003000A1030008A1030008A1030008A10400080F
:10004000A1030008A1030008A1030008A103000800
:10005000A1030008A1030008A1030008A1030008F0
:10006000A1030008A1030008A1030008E10B000898
:10007000110C0008410C0008710C0008A10C0008CC
:10008000D10C0008010D0008A1030008A10300081D
:10009000A1030008A1030008A1030008A1030008B0
:1000A000A1030008A1030008A1030008A1030008A0
:1000B000A1030008A103000841120008A1030008E1
:1000C000A1030008A1030008A1030008A103000880
:1000D000A103000811140008A1030008A1030008EF
:1000E000A1030008A1030008A1030008A103000860
:1000F000A1030008A1030008A1030008A103000850
:10010000A1030008A1030008A1030008A10300083F
:10011000A1030008A1030008A1030008A10300082F
:10012000310D0008610D0008910D0008C10D000897
:10013000F10D0008A1030008A1030008A1030008B5
:10014000A1030008A1030008A1030008A1030008FF
:10015000A1030008A1030008A1030008A1030008EF
:10016000A1030008A1030008A1030008A1030008DF
:10017000A1030008A1030008A1030008A1030008CF
:08018000A1030008A10300081F
:1001900008B500F0ADFC00F0F3F901F089FB01F0C7
:1001A00057FA4FF47A7000F01BFCFAE7AFF30080C7
:1001B000704700BFAFF30080AFF30080AFF3008063
:1001C000FEE700BFAFF30080AFF30080AFF3008025
:1001D00072B6644C84F30988022383F31488BFF356
:1001E0006F8F61486149884218D2CA1C051D531B94
:1001F00023F00302034610184FF055318342196073
:10020000C2F380020AD01AB185422B46296005D07C
:100210001D1D5960083383426960F9D15448A042DA
:1002200018D25449041D0A1B22F00305034628185E
:100230004FF0553183421960C5F380020AD01AB1DC
:1002400084422346216005D01D1D59600833834236
:100250006960F9D101F0C4F94749484881421BD28D
:10026000C61C0C1D321B464822F00302161D0568F1
:100270000423B3420D60C2F380020DD022B1456861
:100280000823B342256007D01A1D1D5884585D50BD
:100290000833B3428C50F7D13A483B49884217D2D1
:1002A000CB1C041D1A1B22F003050346281800214D
:1002B00083421960C5F380020AD01AB184422346F2
:1002C000216005D01D1D5960083383426960F9D152
:1002D000FFF76EFF2D4D2E498D421DD2CC1C2E1DD9
:1002E000A71BB808471C01242A6800EA04089047A5
:1002F000BC4211D0B8F1000F05D0022433689847F2
:10030000BC42354608D0696888470234A8682E1D6B
:1003100080470835BC42F6D1FFF73AFF1D4D1E4A13
:1003200095421DD2D41C2E1DA71BBB085F1C0124A7
:10033000296803EA04088847BC4211D0B8F1000FCD
:1003400005D0022430688047BC42354608D06A6830
:1003500090470234AB682E1D98470835BC42F6D151
:10036000FFF72EFF000800200000002000040020FE
:1003700000040020030800200008002024080020BA
:10038000681A000828080020600B00208801000877
:10039000880100088801000888010008AFF3008088
:1003A000FEE700BFAFF30080AFF30080AFF3008043
:1003B00072B6FEE7AFF30080AFF30080AFF30080CA
:1003C00000F086FA00DF00BFAFF30080AFF30080DB
:1003D000EFF30983203383F30988002383F3118823
:1003E000704700BFAFF30080AFF30080AFF3008031
:1003F00008B54FF46D43CEF200034FF44072C0F2E3
:10040000FA520021996007201021DA6000F090F87C
:100410000A20202100F08CF80B208021BDE8084044
:1004200000F086B8AFF30080AFF30080AFF3008038
:10043000202383F311884FF46D43CEF200035868F4
:1004400010F4006319D0EFF30983A3F1200282F3C3
:10045000098810494FF080708A6943F8040CD07FF6
:1004600009689268896858B1914294BF00220122BC
:1004700062B1094A43F8082C704783F3118870472A
:10048000914234BF00220122002AF2D1034843F8EE
:10049000080C704740090020C1030008C40300088D
:1004A00008B5202383F3118800F0A2F8002383F31A
:1004B0001188BDE80840FFF7BBBF00BFAFF3008065
:1004C0002DE9F04FC1F80CD0D0F80CD0BDE8F08F7A
:1004D000002383F311882846A04700F0B1FA704743
:1004E000F0B44FF461438408CEF20003C03400F04E
:1004F000030553F82470ED00FF26420906FA05F6BD
:1005000027EA060601FA05F500F01F0002F1600770
:10051000012101FA00F02E4343F8246043F827003C
:1005200043F82200F0BC7047AFF30080AFF30080C7
:1005300082084FF46D43CEF20003063200F0030050
:1005400030B4C00053F82250FF2404FA00F425EA26
:10055000040401FA00F10C4343F8224030BC704718
:10056000024B034A98698261FEE700BF4009002000
:10057000E0180008AFF30080AFF30080AFF3008015
:1005800000B583B0FFF734FF00F0DAF800F060F850
:1005900000F066FA00F09CFA40F628004021C2F212
:1005A000000000F0A5F940F64011C2F2000101225E
:1005B00088610277002383F3118862B641F6F00068
:1005C0008969C0F600008861009340F6700040F22F
:1005D0006153C021C0F60003C2F2000000F0E8F948
:1005E00003B000BDAFF30080AFF30080AFF3008035
:1005F00038B5134B9869C27F0AB1511EC177036A9F
:10060000104C5A1C0262E0682268411CA242E16060
:1006100014D09568013D956085B91368D1685C6018
:100620002360D560002383F3118810698847202355
:1006300083F31188226890680028EED038BD00BF8F
:100640004009002030090020AFF30080AFF30080A4
:1006500040F63013C2F200034FF0FF3200205B601F
:100660001B609A60D8607047AFF30080AFF30080E2
:1006700070B40C4E03613468C260A568A94204D905
:100680002468491BA5688D42FAD363680460B442AC
:10069000436018606060816002D0A068411AA16068
:1006A00070BC704730090020AFF30080AFF30080CA
:1006B0000368074A934203D0996882688918996051
:1006C00042681360036800215A60C160704700BF30
:1006D00030090020AFF30080AFF30080AFF300805B
:1006E000202383F31188037F0D2B11D8DFE803F05B
:1006F00020101007100B101010101010100B416A72
:100700008A68531C8B6090E80C001A6001684B608B
:100710004FF0FF3242628168074B002202771B686C
:100720009A688A42FBD25968036041600860586049
:10073000002383F31188704740090020AFF3008045
:1007400040F64013C2F2000300225B601B609A6017
:100750005B611B61704700BFAFF30080AFF30080A7
:1007600000228168054B02771B689A688A42FBD297
:100770005968036041600860586070474009002074
:1007800040F64013C2F2000310B499691A68087762
:1007900014201468C87701201077104663601C602D
:1007A0009A6110BCFFF78CBEAFF30080AFF30080FE
:1007B00030B54B1C87B0054611D00B4C0B4AA369D2
:1007C00001A8FFF755FF2846FFF7DAFF049B13B196
:1007D00001A8FFF76DFFA069406A07B030BDFFF7C1
:1007E000CFFF014CF7E700BF40090020E1060008F9
:1007F000F0B4144F8568BE690446B0686162002396
:1008000085420CD82377394609688A689542FBD916
:1008100048682160606004604C60F0BC70473377CA
:10082000394609688A689042FBD94868316070602F
:1008300006604E600123204631462377BC61F0BC40
:10084000FFF73EBE40090020AFF30080AFF3008009
:100850000E4B18689969026830B453601A608C684E
:1008600098610125142300220577CB770A77034688
:1008700000E01B689A68A242FBD25A680B604A608B
:100880001160596030BCFFF71BBE00BF400900205B
:100890000D4B18689969026830B453608C681A600F
:1008A00001259861002305770B77034600E01B685C
:1008B0009A68A242FBD85A680B604A60116059607E
:1008C00030BCFFF7FDBD00BF40090020AFF3008042
:1008D000034B9869C17F09B1FFF7DABFFFF7B8BFD3
:1008E00040090020AFF30080AFF30080AFF3008039
:1008F000F0B440F64014C2F20004002265690164BD
:10090000046100F12C06816000F1280745614FF079
:10091000020C60610121142480F81CC04277C47766
:10092000C2638263026281778261286187620663A3
:10093000C662F0BC704700BFAFF30080AFF3008029
:100940002DE9F00340F64015C2F20005A1F1240C98
:1009500000EB0C076969C76040F80C30069B7B60B0
:1009600040F2D143C0F600033B6202230377142315
:100970000026904600F1280900F12C02C3770123DC
:100980000561C0F808804161044668614677C0F897
:100990004080C66386630662837786610861C0F81B
:1009A00028900263C262BDE8F0037047AFF3008095
:1009B00010B51C4682B0202383F311882346049C83
:1009C0000094FFF7BDFF00210446FFF711FF00234D
:1009D00083F31188204602B010BD00BFAFF3008042
:1009E00008B50146202383F311880620FFF7E0FEB7
:1009F000002383F3118808BDAFF30080AFF30080BC
:100A000038B50E4B9C692546606255F8280FA84200
:100A100006D00168A162FFF7A3FEA06AA842F8D140
:100A2000607F830704D1636922691A6121694B6180
:100A30000E20BDE83840FFF7A3BE00BF40090020EC
:100A4000202383F31188FFF7DBBF00BFAFF30080E3
:100A50000023406000608360704700BFAFF30080F8
:100A600040F6601240F65C134AF200010648C2F2FA
:100A70000002C2F20003C2F2000120F0070021F0E0
:100A80000701106019607047670B0020AFF300800A
:100A9000202383F31188094B09491A680968073034
:100AA00020F00700891A88429ABF101818600022A7
:100AB000002383F311881046704700BF60090020AF
:100AC0005C090020AFF30080AFF30080AFF300803B
:100AD00040F66813C2F2000340F691210022C0F6EE
:100AE000000103F1100019609A60DA60FFF7B0BFEF
:100AF00008B500F05DFA41F6A010C0F6000000F065
:100B00001FFB00F00DF800F01BF8BDE8084000F0F6
:100B10006FBD00BFAFF30080AFF30080AFF3008084
:100B200000F0CEBBAFF30080AFF30080AFF30080E6
:100B30000123002103704160704700BFAFF30080C4
:100B400000F096BCAFF30080AFF30080AFF30080FD
:100B5000002301220270437083704360704700BF1E
:100B600010B52023044683F31188416000F098FCFF
:100B700002232370002383F3118810BDAFF300809C
:100B800010B52023044683F3118800F0F9FC0123FB
:100B90006370002383F3118810BD00BFAFF30080A2
:100BA00010B5044600F0ECFC0123637010BD00BFDB
:100BB00010B52023044683F3118800F0F1FC0123D3
:100BC000A370002383F3118810BD00BFAFF3008032
:100BD00010B5044600F0E4FC0123A37010BD00BF73
:100BE00008B50023C4F2020306481968026801F040
:100BF0000F0159600AB140689047BDE80840FFF70F
:100C000017BC00BF88090020AFF30080AFF300805D
:100C10000023C4F20203074819688268C1F3031174
:100C200010B50C015C600AB1C0689047BDE8104087
:100C3000FFF7FEBB88090020AFF30080AFF3008010
:100C40000023C4F20203074819680269C1F30321B3
:100C500010B50C025C600AB140699047BDE81040D5
:100C6000FFF7E6BB88090020AFF30080AFF30080F8
:100C70000023C4F20203074819688269C1F30331F3
:100C800010B50C035C600AB1C0699047BDE8104024
:100C9000FFF7CEBB88090020AFF30080AFF30080E0
:100CA0000023C4F2020307481968026AC1F3034132
:100CB00010B50C045C600AB1406A9047BDE8104072
:100CC000FFF7B6BB88090020AFF30080AFF30080C8
:100CD0000023C4F2020307481968826AC1F3035172
:100CE00010B50C055C600AB1C06A9047BDE81040C1
:100CF000FFF79EBB88090020AFF30080AFF30080B0
:100D00000023C4F2020307481968026BC1F30361B0
:100D100010B50C065C600AB1406B9047BDE810400E
:100D2000FFF786BB88090020AFF30080AFF3008097
:100D300008B54FF48063C4F2020306481968826B59
:100D400001F00F0159600AB1C06B9047BDE808403F
:100D5000FFF76EBB88090020AFF30080AFF300807F
:100D60004FF48063C4F2020307481968026CC1F3B0
:100D7000031110B50C015C600AB1406C9047BDE8EE
:100D80001040FFF755BB00BF88090020AFF300807B
:100D90004FF48063C4F2020307481968826CC1F300
:100DA000032110B50C025C600AB1C06C9047BDE82D
:100DB0001040FFF73DBB00BF88090020AFF3008063
:100DC0004FF48063C4F2020307481968026DC1F34F
:100DD000033110B50C035C600AB1406D9047BDE86B
:100DE0001040FFF725BB00BF88090020AFF300804B
:100DF0004FF48063C4F2020307481968826DC1F39F
:100E0000034110B50C045C600AB1C06D9047BDE8A9
:100E10001040FFF70DBB00BF88090020AFF3008032
:100E20002DE9F00F40F6E81286B0C2F200024FF44E
:100E300086600292C4F2020040F244420190C4F281
:100E400002024FF48B600392C4F202004FF48062FE
:100E50000490C4F20202029805924FF0080B00229F
:100E600040F688134FF01C0A4FF030094FF0440849
:100E70004FF0580C6C2780264FF4816540F21C44DB
:100E80000260C2F200030198C4F2020BC4F2020A2B
:100E9000C4F20209C4F20208C4F2020CC4F202074E
:100EA000C4F20206C4F20205C4F20204CBF8002028
:100EB0001A60CAF800209A60C9F800201A61C8F8C0
:100EC00000209A61CCF800201A623A609A6232607F
:100ED0001A632A609A6322601A64026003989A6413
:100EE000026004981A6500210260C4F202019A654A
:100EF000059B4FF0FF324A605A6006B0BDE8F00F24
:100F0000704700BFAFF30080AFF30080AFF3008005
:100F10002DE9F041214D447A2E684FF0010C0CFA76
:100F200004F7374233D1DFF878C00CEBC4083E43F6
:100F3000C8F8043073064CF834202E6007D04FF404
:100F40008053C4F202035C6944F001055D6116F44C
:100F5000786F07D04FF48056C4F20206736943F0ED
:100F60000204746190E828001E6826F00F041C60DB
:100F7000047A0F2606FA04F600242E601C604AB19B
:100F8000807A0901FFF7ACFA2046BDE8F08160469F
:100F9000BDE8F0811046BDE8F08100BFE8090020FF
:100FA00088090020AFF30080AFF30080AFF300802A
:100FB0004FF48053C4F202034EF2100270B50021C8
:100FC000CEF200024FF0FF3541F63F141E691D615D
:100FD000C0F2010419614EF6F050DE68DD60CEF219
:100FE0000000D9605460072491601460C4684FF415
:100FF0008052CEF2000244F08074C460106840F069
:1010000001001060D8694FF4E042C4F2000240F0E1
:101010008050D861106840F4807010601A6A02F441
:101020004070B0F5007F03D04FF480321A6219622D
:101030004FF48053C4F20203196A0A0407D4186AF1
:1010400040F400721A62196A41F400401862FFF716
:10105000E7FE4FF48052C4F2020200239169C4F209
:10106000010341F0010090611A6842F0200119600B
:1010700070BD00BFAFF30080AFF30080AFF300801E
:101080004FF48053C4F2020319461A6842F001007B
:1010900018600A684FF480539007C4F20203F8D531
:1010A0001968002201F0F900186019465A60486872
:1010B0004FF4805310F00C0FC4F20203F7D11968FB
:1010C00041F4A0221A60184601684FF480538A0345
:1010D000C4F20203F8D55A6A42F001005862194678
:1010E0004A6A4FF480539007C4F20203F8D54FF4D4
:1010F0001050C0F21D004FF4807130225860D96248
:101100001A63186840F08071196018684FF48052B3
:101110008101C4F20202F8D54FF40053C4F2020375
:1011200012211960506840F002035360516801F0C9
:101130000C000828FAD17047AFF30080AFF30080AD
:101140004FF48053C4F202035A6942F4FC0159611E
:1011500041684FF090424FF4806351608168916024
:10116000C168D1600169516141691162816951624F
:1011700001681160016AC4F600034FF4006259600F
:10118000416A9960816AD960C16A5961016B1962CB
:10119000416B5962C1691960C4F60002C36B5360A8
:1011A000016C9160436CD360816C5161C36C1362BC
:1011B000016D5162816B4FF440631160816DC4F623
:1011C00000034FF480525960C16D9960016ED9607F
:1011D000416E5961816E1962C16E5962416D19602B
:1011E000C4F60002436F5360816F9160C36FD36098
:1011F000D0F880105161D0F884301362D0F8881094
:101200005162016F4FF4A0531160D0F89020C4F6E2
:1012100000035A60D0F894109960D0F89820DA60F2
:10122000D0F89C105961D0F8A0201A62D0F8A41010
:101230005962D0F88C001860704700BFAFF300808F
:1012400038B51C4D2B691A69DC681440A4B2E1B2B0
:1012500004F00200C94382B21961002A24D104F0CB
:10126000040082B2DAB904F0080082B292B904F044
:10127000100082B24AB9E30703D56A680D48936843
:101280009847BDE83840FFF7D3B86B680948996ABA
:101290008847F0E76B680748196A8847E7E76B6893
:1012A000044899698847DEE76B68284619698847CA
:1012B000D5E700BFEC090020AFF30080AFF300805A
:1012C00010B540F6EC14C2F200042046FFF730FCE3
:1012D0004FF40063C4F20003236110BDAFF300803C
:1012E000436810B40469DA68236800F11801C06823
:1012F000D960002A14BF2222202202430121596012
:101300001A6018680843186010BC7047AFF300807B
:101310000169426983682DE9F00191E84010D6F82F
:10132000008028F00F0092E8A0003060097A0F24B6
:1013300004FA01F0CCF80000296821F00F002860C1
:10134000117A002204FA01F43C601A605A609A6033
:10135000BDE8F001704700BFAFF30080AFF300803D
:1013600038B50B07044619D4636961681A68586870
:101370001568096825F00F0515601B7A0F2202FA1F
:1013800003F303600220607029B12046884761782A
:10139000022900D038BD0022627038BDFFF708F87E
:1013A000E2E700BFAFF30080AFF30080AFF300804F
:1013B0000A0738B5044620D4A3783BB96368DA68D5
:1013C000D2B1218B204689B2904738BD236961682C
:1013D0001A6858681568896825F00F0515601B7A2A
:1013E0000F2202FA03F303600220A07041B12046ED
:1013F0008847A178022903D038BDFEF7D9FFDBE783
:1014000000222046A270BDE83840FFF769BF00BF48
:1014100038B5164DAA68D46940F20F132340146200
:10142000CBB168680369B3B114F0080F0CBF002199
:101430001021E20748BF41F00401A00748BF41F076
:101440000801620748BF41F02001E00548BF41F0B4
:10145000400106489847610604D569684A680AB1A0
:1014600002489047BDE83840FEF7E2BF000A00207E
:1014700010B540F60024C2F200042046FFF768FBD6
:10148000064B4FF46052C4F20102A3F10C01082094
:10149000A260E0602361616110BD00BF40190008D7
:1014A000F8B50378012B04462CD085680026A67079
:1014B00066702046FFF72CFF63684FF4A247586917
:1014C000C0F22527B7FBF0F103F118068AB2AA8112
:1014D00096E807005F6840F20D1640F24D13002FAA
:1014E00008BF334603434FF0FF30286241F040010C
:1014F00042F0C10220466960AA602B60BDE8F84056
:10150000FFF7EEBE1A48844219D06668B76907F43F
:10151000A053B3F5805F0DD022696669A56817688E
:10152000336805F1240005F128010022B8609960B4
:101530002283BBE7E06840F4A061E160ECE70C21A6
:1015400023460C4A2069FFF7E3FC0C2160690A4A34
:101550002346FFF7DDFC4FF48051C4F20201252041
:101560008A6942F480458D61C021FEF7B9FFCCE75E
:10157000000A0020B113000861130008AFF30080D7
:101580004369C0681B6840F09200DA6059601860D7
:101590001A6842F001011960704700BFAFF3008084
:1015A00070B4046994E828001E6826F00F061E60D7
:1015B000247A0F2606FA04F42C60C068DA6040F042
:1015C0008200596018601A6842F00101196070BC0D
:1015D000704700BFAFF30080AFF30080AFF300802F
:1015E000FFF74EBDAFF30080AFF30080AFF3008094
:1015F000704700BFAFF30080AFF30080AFF300800F
:1016000030B50D4B0D4A98694FF4805483B0826118
:10161000C4F600044D254FF49670FFF7E1F96169B7
:10162000074881F40063636101210DF107028DF821
:101630000750FFF7A5FAEEE7400900205C1A000802
:10164000000A0020AFF30080AFF30080AFF300800A
:1016500000B583B00023009340F6202041F20163DF
:101660004FF498714022C0F60003C2F20000FFF769
:101670009FF903B000BD00BFAFF30080AFF300805F
:10168000704700BFAFF30080AFF30080AFF300807E
:10169000704700BFAFF30080AFF30080AFF300806E
:1016A000704700BFAFF30080AFF30080AFF300805E
:1016B000704700BFAFF30080AFF30080AFF300804E
:1016C00030B40546002900F08680002318462DE03E
:1016D0004208640882EA0400C00736D4520864084D
:1016E00082EA0400C0073AD45208640882EA04007F
:1016F000C0073ED45208640882EA0400C00742D4FE
:101700005208640882EA0400C00746D452086408FC
:1017100082EA0400C0074AD4520882EA5404E0076F
:101720004ED40133DBB250088B4252D0EC5C84EAD9
:101730000002D207CCD580F007004208640842F0CE
:10174000800282EA0400C007C8D582F00702500870
:10175000640840F0800282EA0400C007C4D582F029
:1017600007025008640840F0800282EA0400C007C3
:10177000C0D582F007025008640840F0800282EA77
:101780000400C007BCD582F007025008640840F08E
:10179000800282EA0400C007B8D582F00702500830
:1017A000640840F0800282EA0400C007B4D582F0E9
:1017B0000702500840F0800282EA5404E007B0D5E6
:1017C000013382F00700DBB242088B4242F0800016
:1017D000ACD130BC70470846FBE700BFAFF30080D8
:1017E00010B5202383F311882C4C07212046FFF7E6
:1017F00067FFE379834200D010BD2078F02822D023
:10180000F12813D0264C07212548FFF759FF08215E
:10181000E071234A2348FFF7C3F922481F4A0821F1
:10182000FFF7D6F9002383F3118810BD6178B9B9A9
:101830004FF48051C4F60001194C4FF400630122AB
:101840004B832270DFE7647884B94FF48050C4F68C
:101850000000134C4FF40071012341832370D2E741
:10186000FF2910D00E4C02202070CCE7FF2CF9D1BC
:101870004FF48051C4F60001094C4FF4007301226B
:101880000B832270BFE74FF48053C4F60003044C6F
:101890004FF4006201201A832070B4E7500B00203F
:1018A000580B0020000A0020AFF30080AFF3008047
:1018B00010B540F60024C2F2000440F600012046B4
:1018C000C2F20001FFF74CF940F6503220460821E1
:1018D000C2F20002BDE81040FFF76AB9AFF3008022
:1018E00069646C650000000000000000000000005A
:1018F0006D61696E0016C011040448080C101418BC
:10190000001C1D1E1F200000000000000000000041
:10191000080002400400024000000B001C000240CE
:101920000400024004010C003000024004000240A8
:1019300008020D0044000240040002400C030E00A7
:10194000580002400400024010040F006C000240E6
:101950000400024014051000800002400400024010
:101960001806110008040240040402400007380071
:101970001C04024004040240040839003004024000
:101980000404024008093A004404024004040240EE
:101990000C0A3B005804024004040240100B3C00B7
:1019A00000A8802A0000000000FCC03C541115640F
:1019B000FFFF00000000505500E00E0080A0000076
:1019C000C0000000C0F0000015055555FFFF0000E5
:1019D00000000044000000000000000000000000C3
:1019E000000000F055555505FFFF00000000000005
:1019F00000000000000000000000000000000000E7
:101A000055555555FFFF0000000000000000000084
:101A10004000555500000000C000FFFF155515019E
:101A2000FF000000000000000000000000000000B7
:101A3000000000000F00000050555555FFFF00004A
:101A40000000000000000000000000000000000096
:101A5000426C696E6B79426C75650000426C696E10
:081A60006B79477265656E00A9
:101A68008116000891160008E1170008B116000851
:101A7800A11600080000000000000000000000009F
:041A8800000000005A
:04000005080001D11D
:00000001FF
